{"abi":[{"type":"constructor","inputs":[{"name":"_owner","type":"address","internalType":"address"}],"stateMutability":"nonpayable"},{"type":"function","name":"approve","inputs":[{"name":"to","type":"address","internalType":"address"},{"name":"tokenId","type":"uint256","internalType":"uint256"}],"outputs":[],"stateMutability":"nonpayable"},{"type":"function","name":"balanceOf","inputs":[{"name":"owner","type":"address","internalType":"address"}],"outputs":[{"name":"","type":"uint256","internalType":"uint256"}],"stateMutability":"view"},{"type":"function","name":"getApproved","inputs":[{"name":"tokenId","type":"uint256","internalType":"uint256"}],"outputs":[{"name":"","type":"address","internalType":"address"}],"stateMutability":"view"},{"type":"function","name":"isApprovedForAll","inputs":[{"name":"owner","type":"address","internalType":"address"},{"name":"operator","type":"address","internalType":"address"}],"outputs":[{"name":"","type":"bool","internalType":"bool"}],"stateMutability":"view"},{"type":"function","name":"mint","inputs":[{"name":"to","type":"address","internalType":"address"}],"outputs":[],"stateMutability":"nonpayable"},{"type":"function","name":"name","inputs":[],"outputs":[{"name":"","type":"string","internalType":"string"}],"stateMutability":"view"},{"type":"function","name":"nextTokenId","inputs":[],"outputs":[{"name":"","type":"uint256","internalType":"uint256"}],"stateMutability":"view"},{"type":"function","name":"owner","inputs":[],"outputs":[{"name":"","type":"address","internalType":"address"}],"stateMutability":"view"},{"type":"function","name":"ownerOf","inputs":[{"name":"tokenId","type":"uint256","internalType":"uint256"}],"outputs":[{"name":"","type":"address","internalType":"address"}],"stateMutability":"view"},{"type":"function","name":"renounceOwnership","inputs":[],"outputs":[],"stateMutability":"nonpayable"},{"type":"function","name":"safeTransferFrom","inputs":[{"name":"from","type":"address","internalType":"address"},{"name":"to","type":"address","internalType":"address"},{"name":"tokenId","type":"uint256","internalType":"uint256"}],"outputs":[],"stateMutability":"nonpayable"},{"type":"function","name":"safeTransferFrom","inputs":[{"name":"from","type":"address","internalType":"address"},{"name":"to","type":"address","internalType":"address"},{"name":"tokenId","type":"uint256","internalType":"uint256"},{"name":"data","type":"bytes","internalType":"bytes"}],"outputs":[],"stateMutability":"nonpayable"},{"type":"function","name":"setApprovalForAll","inputs":[{"name":"operator","type":"address","internalType":"address"},{"name":"approved","type":"bool","internalType":"bool"}],"outputs":[],"stateMutability":"nonpayable"},{"type":"function","name":"supportsInterface","inputs":[{"name":"interfaceId","type":"bytes4","internalType":"bytes4"}],"outputs":[{"name":"","type":"bool","internalType":"bool"}],"stateMutability":"view"},{"type":"function","name":"symbol","inputs":[],"outputs":[{"name":"","type":"string","internalType":"string"}],"stateMutability":"view"},{"type":"function","name":"tokenURI","inputs":[{"name":"tokenId","type":"uint256","internalType":"uint256"}],"outputs":[{"name":"","type":"string","internalType":"string"}],"stateMutability":"view"},{"type":"function","name":"transferFrom","inputs":[{"name":"from","type":"address","internalType":"address"},{"name":"to","type":"address","internalType":"address"},{"name":"tokenId","type":"uint256","internalType":"uint256"}],"outputs":[],"stateMutability":"nonpayable"},{"type":"function","name":"transferOwnership","inputs":[{"name":"newOwner","type":"address","internalType":"address"}],"outputs":[],"stateMutability":"nonpayable"},{"type":"event","name":"Approval","inputs":[{"name":"owner","type":"address","indexed":true,"internalType":"address"},{"name":"approved","type":"address","indexed":true,"internalType":"address"},{"name":"tokenId","type":"uint256","indexed":true,"internalType":"uint256"}],"anonymous":false},{"type":"event","name":"ApprovalForAll","inputs":[{"name":"owner","type":"address","indexed":true,"internalType":"address"},{"name":"operator","type":"address","indexed":true,"internalType":"address"},{"name":"approved","type":"bool","indexed":false,"internalType":"bool"}],"anonymous":false},{"type":"event","name":"OwnershipTransferred","inputs":[{"name":"previousOwner","type":"address","indexed":true,"internalType":"address"},{"name":"newOwner","type":"address","indexed":true,"internalType":"address"}],"anonymous":false},{"type":"event","name":"Transfer","inputs":[{"name":"from","type":"address","indexed":true,"internalType":"address"},{"name":"to","type":"address","indexed":true,"internalType":"address"},{"name":"tokenId","type":"uint256","indexed":true,"internalType":"uint256"}],"anonymous":false},{"type":"error","name":"ERC721IncorrectOwner","inputs":[{"name":"sender","type":"address","internalType":"address"},{"name":"tokenId","type":"uint256","internalType":"uint256"},{"name":"owner","type":"address","internalType":"address"}]},{"type":"error","name":"ERC721InsufficientApproval","inputs":[{"name":"operator","type":"address","internalType":"address"},{"name":"tokenId","type":"uint256","internalType":"uint256"}]},{"type":"error","name":"ERC721InvalidApprover","inputs":[{"name":"approver","type":"address","internalType":"address"}]},{"type":"error","name":"ERC721InvalidOperator","inputs":[{"name":"operator","type":"address","internalType":"address"}]},{"type":"error","name":"ERC721InvalidOwner","inputs":[{"name":"owner","type":"address","internalType":"address"}]},{"type":"error","name":"ERC721InvalidReceiver","inputs":[{"name":"receiver","type":"address","internalType":"address"}]},{"type":"error","name":"ERC721InvalidSender","inputs":[{"name":"sender","type":"address","internalType":"address"}]},{"type":"error","name":"ERC721NonexistentToken","inputs":[{"name":"tokenId","type":"uint256","internalType":"uint256"}]},{"type":"error","name":"OwnableInvalidOwner","inputs":[{"name":"owner","type":"address","internalType":"address"}]},{"type":"error","name":"OwnableUnauthorizedAccount","inputs":[{"name":"account","type":"address","internalType":"address"}]}],"bytecode":{"object":"0x608060405234801561000f575f5ffd5b5060405161265238038061265283398181016040528101906100319190610266565b806040518060400160405280600881526020017f5345494e204e46540000000000000000000000000000000000000000000000008152506040518060400160405280600481526020017f5345494e00000000000000000000000000000000000000000000000000000000815250815f90816100ac91906104df565b5080600190816100bc91906104df565b5050505f73ffffffffffffffffffffffffffffffffffffffff168173ffffffffffffffffffffffffffffffffffffffff160361012f575f6040517f1e4fbdf700000000000000000000000000000000000000000000000000000000815260040161012691906105bd565b60405180910390fd5b61013e8161014560201b60201c565b50506105d6565b5f60065f9054906101000a900473ffffffffffffffffffffffffffffffffffffffff1690508160065f6101000a81548173ffffffffffffffffffffffffffffffffffffffff021916908373ffffffffffffffffffffffffffffffffffffffff1602179055508173ffffffffffffffffffffffffffffffffffffffff168173ffffffffffffffffffffffffffffffffffffffff167f8be0079c531659141344cd1fd0a4f28419497f9722a3daafe3b4186f6b6457e060405160405180910390a35050565b5f5ffd5b5f73ffffffffffffffffffffffffffffffffffffffff82169050919050565b5f6102358261020c565b9050919050565b6102458161022b565b811461024f575f5ffd5b50565b5f815190506102608161023c565b92915050565b5f6020828403121561027b5761027a610208565b5b5f61028884828501610252565b91505092915050565b5f81519050919050565b7f4e487b71000000000000000000000000000000000000000000000000000000005f52604160045260245ffd5b7f4e487b71000000000000000000000000000000000000000000000000000000005f52602260045260245ffd5b5f600282049050600182168061030c57607f821691505b60208210810361031f5761031e6102c8565b5b50919050565b5f819050815f5260205f209050919050565b5f6020601f8301049050919050565b5f82821b905092915050565b5f600883026103817fffffffffffffffffffffffffffffffffffffffffffffffffffffffffffffffff82610346565b61038b8683610346565b95508019841693508086168417925050509392505050565b5f819050919050565b5f819050919050565b5f6103cf6103ca6103c5846103a3565b6103ac565b6103a3565b9050919050565b5f819050919050565b6103e8836103b5565b6103fc6103f4826103d6565b848454610352565b825550505050565b5f5f905090565b610413610404565b61041e8184846103df565b505050565b5f5b82811015610444576104395f82840161040b565b600181019050610425565b505050565b601f82111561049757828211156104965761046381610325565b61046c83610337565b61047585610337565b6020861015610482575f90505b80830161049182840382610423565b505050505b5b505050565b5f82821c905092915050565b5f6104b75f198460080261049c565b1980831691505092915050565b5f6104cf83836104a8565b9150826002028217905092915050565b6104e882610291565b67ffffffffffffffff8111156105015761050061029b565b5b61050b82546102f5565b610516828285610449565b5f60209050601f831160018114610547575f8415610535578287015190505b61053f85826104c4565b8655506105a6565b601f19841661055586610325565b5f5b8281101561057c57848901518255600182019150602085019450602081019050610557565b868310156105995784890151610595601f8916826104a8565b8355505b6001600288020188555050505b505050505050565b6105b78161022b565b82525050565b5f6020820190506105d05f8301846105ae565b92915050565b61206f806105e35f395ff3fe608060405234801561000f575f5ffd5b5060043610610114575f3560e01c8063715018a6116100a0578063a22cb4651161006f578063a22cb465146102ca578063b88d4fde146102e6578063c87b56dd14610302578063e985e9c514610332578063f2fde38b1461036257610114565b8063715018a61461026657806375794a3c146102705780638da5cb5b1461028e57806395d89b41146102ac57610114565b806323b872dd116100e757806323b872dd146101b257806342842e0e146101ce5780636352211e146101ea5780636a6278421461021a57806370a082311461023657610114565b806301ffc9a71461011857806306fdde0314610148578063081812fc14610166578063095ea7b314610196575b5f5ffd5b610132600480360381019061012d91906118a6565b61037e565b60405161013f91906118eb565b60405180910390f35b61015061045f565b60405161015d9190611974565b60405180910390f35b610180600480360381019061017b91906119c7565b6104ee565b60405161018d9190611a31565b60405180910390f35b6101b060048036038101906101ab9190611a74565b610509565b005b6101cc60048036038101906101c79190611ab2565b61051f565b005b6101e860048036038101906101e39190611ab2565b61061e565b005b61020460048036038101906101ff91906119c7565b61063d565b6040516102119190611a31565b60405180910390f35b610234600480360381019061022f9190611b02565b61064e565b005b610250600480360381019061024b9190611b02565b61067c565b60405161025d9190611b3c565b60405180910390f35b61026e610732565b005b610278610745565b6040516102859190611b3c565b60405180910390f35b61029661074b565b6040516102a39190611a31565b60405180910390f35b6102b4610773565b6040516102c19190611974565b60405180910390f35b6102e460048036038101906102df9190611b7f565b610803565b005b61030060048036038101906102fb9190611ce9565b610819565b005b61031c600480360381019061031791906119c7565b61083e565b6040516103299190611974565b60405180910390f35b61034c60048036038101906103479190611d69565b6108a4565b60405161035991906118eb565b60405180910390f35b61037c60048036038101906103779190611b02565b610932565b005b5f7f80ac58cd000000000000000000000000000000000000000000000000000000007bffffffffffffffffffffffffffffffffffffffffffffffffffffffff1916827bffffffffffffffffffffffffffffffffffffffffffffffffffffffff1916148061044857507f5b5e139f000000000000000000000000000000000000000000000000000000007bffffffffffffffffffffffffffffffffffffffffffffffffffffffff1916827bffffffffffffffffffffffffffffffffffffffffffffffffffffffff1916145b806104585750610457826109b6565b5b9050919050565b60605f805461046d90611dd4565b80601f016020809104026020016040519081016040528092919081815260200182805461049990611dd4565b80156104e45780601f106104bb576101008083540402835291602001916104e4565b820191905f5260205f20905b8154815290600101906020018083116104c757829003601f168201915b5050505050905090565b5f6104f882610a1f565b5061050282610aa5565b9050919050565b61051b8282610516610ade565b610ae5565b5050565b5f73ffffffffffffffffffffffffffffffffffffffff168273ffffffffffffffffffffffffffffffffffffffff160361058f575f6040517f64a0ae920000000000000000000000000000000000000000000000000000000081526004016105869190611a31565b60405180910390fd5b5f6105a2838361059d610ade565b610af7565b90508373ffffffffffffffffffffffffffffffffffffffff168173ffffffffffffffffffffffffffffffffffffffff1614610618578382826040517f64283d7b00000000000000000000000000000000000000000000000000000000815260040161060f93929190611e04565b60405180910390fd5b50505050565b61063883838360405180602001604052805f815250610819565b505050565b5f61064782610a1f565b9050919050565b610656610d02565b61066281600754610d89565b60075f81548092919061067490611e66565b919050555050565b5f5f73ffffffffffffffffffffffffffffffffffffffff168273ffffffffffffffffffffffffffffffffffffffff16036106ed575f6040517f89c62b640000000000000000000000000000000000000000000000000000000081526004016106e49190611a31565b60405180910390fd5b60035f8373ffffffffffffffffffffffffffffffffffffffff1673ffffffffffffffffffffffffffffffffffffffff1681526020019081526020015f20549050919050565b61073a610d02565b6107435f610da6565b565b60075481565b5f60065f9054906101000a900473ffffffffffffffffffffffffffffffffffffffff16905090565b60606001805461078290611dd4565b80601f01602080910402602001604051908101604052809291908181526020018280546107ae90611dd4565b80156107f95780601f106107d0576101008083540402835291602001916107f9565b820191905f5260205f20905b8154815290600101906020018083116107dc57829003601f168201915b5050505050905090565b61081561080e610ade565b8383610e69565b5050565b61082484848461051f565b61083861082f610ade565b85858585610fd2565b50505050565b606061084982610a1f565b505f61085361117e565b90505f8151116108715760405180602001604052805f81525061089c565b8061087b84611194565b60405160200161088c929190611ee7565b6040516020818303038152906040525b915050919050565b5f60055f8473ffffffffffffffffffffffffffffffffffffffff1673ffffffffffffffffffffffffffffffffffffffff1681526020019081526020015f205f8373ffffffffffffffffffffffffffffffffffffffff1673ffffffffffffffffffffffffffffffffffffffff1681526020019081526020015f205f9054906101000a900460ff16905092915050565b61093a610d02565b5f73ffffffffffffffffffffffffffffffffffffffff168173ffffffffffffffffffffffffffffffffffffffff16036109aa575f6040517f1e4fbdf70000000000000000000000000000000000000000000000000000000081526004016109a19190611a31565b60405180910390fd5b6109b381610da6565b50565b5f7f01ffc9a7000000000000000000000000000000000000000000000000000000007bffffffffffffffffffffffffffffffffffffffffffffffffffffffff1916827bffffffffffffffffffffffffffffffffffffffffffffffffffffffff1916149050919050565b5f5f610a2a8361125e565b90505f73ffffffffffffffffffffffffffffffffffffffff168173ffffffffffffffffffffffffffffffffffffffff1603610a9c57826040517f7e273289000000000000000000000000000000000000000000000000000000008152600401610a939190611b3c565b60405180910390fd5b80915050919050565b5f60045f8381526020019081526020015f205f9054906101000a900473ffffffffffffffffffffffffffffffffffffffff169050919050565b5f33905090565b610af28383836001611297565b505050565b5f5f610b028461125e565b90505f73ffffffffffffffffffffffffffffffffffffffff168373ffffffffffffffffffffffffffffffffffffffff1614610b4357610b42818486611456565b5b5f73ffffffffffffffffffffffffffffffffffffffff168173ffffffffffffffffffffffffffffffffffffffff1614610bce57610b825f855f5f611297565b600160035f8373ffffffffffffffffffffffffffffffffffffffff1673ffffffffffffffffffffffffffffffffffffffff1681526020019081526020015f205f82825403925050819055505b5f73ffffffffffffffffffffffffffffffffffffffff168573ffffffffffffffffffffffffffffffffffffffff1614610c4d57600160035f8773ffffffffffffffffffffffffffffffffffffffff1673ffffffffffffffffffffffffffffffffffffffff1681526020019081526020015f205f82825401925050819055505b8460025f8681526020019081526020015f205f6101000a81548173ffffffffffffffffffffffffffffffffffffffff021916908373ffffffffffffffffffffffffffffffffffffffff160217905550838573ffffffffffffffffffffffffffffffffffffffff168273ffffffffffffffffffffffffffffffffffffffff167fddf252ad1be2c89b69c2b068fc378daa952ba7f163c4a11628f55a4df523b3ef60405160405180910390a4809150509392505050565b610d0a610ade565b73ffffffffffffffffffffffffffffffffffffffff16610d2861074b565b73ffffffffffffffffffffffffffffffffffffffff1614610d8757610d4b610ade565b6040517f118cdaa7000000000000000000000000000000000000000000000000000000008152600401610d7e9190611a31565b60405180910390fd5b565b610da2828260405180602001604052805f815250611519565b5050565b5f60065f9054906101000a900473ffffffffffffffffffffffffffffffffffffffff1690508160065f6101000a81548173ffffffffffffffffffffffffffffffffffffffff021916908373ffffffffffffffffffffffffffffffffffffffff1602179055508173ffffffffffffffffffffffffffffffffffffffff168173ffffffffffffffffffffffffffffffffffffffff167f8be0079c531659141344cd1fd0a4f28419497f9722a3daafe3b4186f6b6457e060405160405180910390a35050565b5f73ffffffffffffffffffffffffffffffffffffffff168273ffffffffffffffffffffffffffffffffffffffff1603610ed957816040517f5b08ba18000000000000000000000000000000000000000000000000000000008152600401610ed09190611a31565b60405180910390fd5b8060055f8573ffffffffffffffffffffffffffffffffffffffff1673ffffffffffffffffffffffffffffffffffffffff1681526020019081526020015f205f8473ffffffffffffffffffffffffffffffffffffffff1673ffffffffffffffffffffffffffffffffffffffff1681526020019081526020015f205f6101000a81548160ff0219169083151502179055508173ffffffffffffffffffffffffffffffffffffffff168373ffffffffffffffffffffffffffffffffffffffff167f17307eab39ab6107e8899845ad3d59bd9653f200f220920489ca2b5937696c3183604051610fc591906118eb565b60405180910390a3505050565b5f8373ffffffffffffffffffffffffffffffffffffffff163b1115611177578273ffffffffffffffffffffffffffffffffffffffff1663150b7a02868685856040518563ffffffff1660e01b81526004016110309493929190611f5c565b6020604051808303815f875af192505050801561106b57506040513d601f19601f820116820180604052508101906110689190611fba565b60015b6110ec573d805f8114611099576040519150601f19603f3d011682016040523d82523d5f602084013e61109e565b606091505b505f8151036110e457836040517f64a0ae920000000000000000000000000000000000000000000000000000000081526004016110db9190611a31565b60405180910390fd5b805160208201fd5b63150b7a0260e01b7bffffffffffffffffffffffffffffffffffffffffffffffffffffffff1916817bffffffffffffffffffffffffffffffffffffffffffffffffffffffff19161461117557836040517f64a0ae9200000000000000000000000000000000000000000000000000000000815260040161116c9190611a31565b60405180910390fd5b505b5050505050565b606060405180602001604052805f815250905090565b60605f60016111a28461153c565b0190505f8167ffffffffffffffff8111156111c0576111bf611bc5565b5b6040519080825280601f01601f1916602001820160405280156111f25781602001600182028036833780820191505090505b5090505f82602083010190505b600115611253578080600190039150507f3031323334353637383961626364656600000000000000000000000000000000600a86061a8153600a858161124857611247611fe5565b5b0494505f85036111ff575b819350505050919050565b5f60025f8381526020019081526020015f205f9054906101000a900473ffffffffffffffffffffffffffffffffffffffff169050919050565b80806112cf57505f73ffffffffffffffffffffffffffffffffffffffff168273ffffffffffffffffffffffffffffffffffffffff1614155b15611401575f6112de84610a1f565b90505f73ffffffffffffffffffffffffffffffffffffffff168373ffffffffffffffffffffffffffffffffffffffff161415801561134857508273ffffffffffffffffffffffffffffffffffffffff168173ffffffffffffffffffffffffffffffffffffffff1614155b801561135b575061135981846108a4565b155b1561139d57826040517fa9fbf51f0000000000000000000000000000000000000000000000000000000081526004016113949190611a31565b60405180910390fd5b81156113ff57838573ffffffffffffffffffffffffffffffffffffffff168273ffffffffffffffffffffffffffffffffffffffff167f8c5be1e5ebec7d5bd14f71427d1e84f3dd0314c0f7b2291e5b200ac8c7c3b92560405160405180910390a45b505b8360045f8581526020019081526020015f205f6101000a81548173ffffffffffffffffffffffffffffffffffffffff021916908373ffffffffffffffffffffffffffffffffffffffff16021790555050505050565b61146183838361168d565b611514575f73ffffffffffffffffffffffffffffffffffffffff168373ffffffffffffffffffffffffffffffffffffffff16036114d557806040517f7e2732890000000000000000000000000000000000000000000000000000000081526004016114cc9190611b3c565b60405180910390fd5b81816040517f177e802f00000000000000000000000000000000000000000000000000000000815260040161150b929190612012565b60405180910390fd5b505050565b611523838361174d565b61153761152e610ade565b5f858585610fd2565b505050565b5f5f5f90507a184f03e93ff9f4daa797ed6e38ed64bf6a1f0100000000000000008310611598577a184f03e93ff9f4daa797ed6e38ed64bf6a1f010000000000000000838161158e5761158d611fe5565b5b0492506040810190505b6d04ee2d6d415b85acef810000000083106115d5576d04ee2d6d415b85acef810000000083816115cb576115ca611fe5565b5b0492506020810190505b662386f26fc10000831061160457662386f26fc1000083816115fa576115f9611fe5565b5b0492506010810190505b6305f5e100831061162d576305f5e100838161162357611622611fe5565b5b0492506008810190505b612710831061165257612710838161164857611647611fe5565b5b0492506004810190505b60648310611675576064838161166b5761166a611fe5565b5b0492506002810190505b600a8310611684576001810190505b80915050919050565b5f5f73ffffffffffffffffffffffffffffffffffffffff168373ffffffffffffffffffffffffffffffffffffffff161415801561174457508273ffffffffffffffffffffffffffffffffffffffff168473ffffffffffffffffffffffffffffffffffffffff161480611705575061170484846108a4565b5b8061174357508273ffffffffffffffffffffffffffffffffffffffff1661172b83610aa5565b73ffffffffffffffffffffffffffffffffffffffff16145b5b90509392505050565b5f73ffffffffffffffffffffffffffffffffffffffff168273ffffffffffffffffffffffffffffffffffffffff16036117bd575f6040517f64a0ae920000000000000000000000000000000000000000000000000000000081526004016117b49190611a31565b60405180910390fd5b5f6117c983835f610af7565b90505f73ffffffffffffffffffffffffffffffffffffffff168173ffffffffffffffffffffffffffffffffffffffff161461183b575f6040517f73c6ac6e0000000000000000000000000000000000000000000000000000000081526004016118329190611a31565b60405180910390fd5b505050565b5f604051905090565b5f5ffd5b5f5ffd5b5f7fffffffff0000000000000000000000000000000000000000000000000000000082169050919050565b61188581611851565b811461188f575f5ffd5b50565b5f813590506118a08161187c565b92915050565b5f602082840312156118bb576118ba611849565b5b5f6118c884828501611892565b91505092915050565b5f8115159050919050565b6118e5816118d1565b82525050565b5f6020820190506118fe5f8301846118dc565b92915050565b5f81519050919050565b5f82825260208201905092915050565b8281835e5f83830152505050565b5f601f19601f8301169050919050565b5f61194682611904565b611950818561190e565b935061196081856020860161191e565b6119698161192c565b840191505092915050565b5f6020820190508181035f83015261198c818461193c565b905092915050565b5f819050919050565b6119a681611994565b81146119b0575f5ffd5b50565b5f813590506119c18161199d565b92915050565b5f602082840312156119dc576119db611849565b5b5f6119e9848285016119b3565b91505092915050565b5f73ffffffffffffffffffffffffffffffffffffffff82169050919050565b5f611a1b826119f2565b9050919050565b611a2b81611a11565b82525050565b5f602082019050611a445f830184611a22565b92915050565b611a5381611a11565b8114611a5d575f5ffd5b50565b5f81359050611a6e81611a4a565b92915050565b5f5f60408385031215611a8a57611a89611849565b5b5f611a9785828601611a60565b9250506020611aa8858286016119b3565b9150509250929050565b5f5f5f60608486031215611ac957611ac8611849565b5b5f611ad686828701611a60565b9350506020611ae786828701611a60565b9250506040611af8868287016119b3565b9150509250925092565b5f60208284031215611b1757611b16611849565b5b5f611b2484828501611a60565b91505092915050565b611b3681611994565b82525050565b5f602082019050611b4f5f830184611b2d565b92915050565b611b5e816118d1565b8114611b68575f5ffd5b50565b5f81359050611b7981611b55565b92915050565b5f5f60408385031215611b9557611b94611849565b5b5f611ba285828601611a60565b9250506020611bb385828601611b6b565b9150509250929050565b5f5ffd5b5f5ffd5b7f4e487b71000000000000000000000000000000000000000000000000000000005f52604160045260245ffd5b611bfb8261192c565b810181811067ffffffffffffffff82111715611c1a57611c19611bc5565b5b80604052505050565b5f611c2c611840565b9050611c388282611bf2565b919050565b5f67ffffffffffffffff821115611c5757611c56611bc5565b5b611c608261192c565b9050602081019050919050565b828183375f83830152505050565b5f611c8d611c8884611c3d565b611c23565b905082815260208101848484011115611ca957611ca8611bc1565b5b611cb4848285611c6d565b509392505050565b5f82601f830112611cd057611ccf611bbd565b5b8135611ce0848260208601611c7b565b91505092915050565b5f5f5f5f60808587031215611d0157611d00611849565b5b5f611d0e87828801611a60565b9450506020611d1f87828801611a60565b9350506040611d30878288016119b3565b925050606085013567ffffffffffffffff811115611d5157611d5061184d565b5b611d5d87828801611cbc565b91505092959194509250565b5f5f60408385031215611d7f57611d7e611849565b5b5f611d8c85828601611a60565b9250506020611d9d85828601611a60565b9150509250929050565b7f4e487b71000000000000000000000000000000000000000000000000000000005f52602260045260245ffd5b5f6002820490506001821680611deb57607f821691505b602082108103611dfe57611dfd611da7565b5b50919050565b5f606082019050611e175f830186611a22565b611e246020830185611b2d565b611e316040830184611a22565b949350505050565b7f4e487b71000000000000000000000000000000000000000000000000000000005f52601160045260245ffd5b5f611e7082611994565b91507fffffffffffffffffffffffffffffffffffffffffffffffffffffffffffffffff8203611ea257611ea1611e39565b5b600182019050919050565b5f81905092915050565b5f611ec182611904565b611ecb8185611ead565b9350611edb81856020860161191e565b80840191505092915050565b5f611ef28285611eb7565b9150611efe8284611eb7565b91508190509392505050565b5f81519050919050565b5f82825260208201905092915050565b5f611f2e82611f0a565b611f388185611f14565b9350611f4881856020860161191e565b611f518161192c565b840191505092915050565b5f608082019050611f6f5f830187611a22565b611f7c6020830186611a22565b611f896040830185611b2d565b8181036060830152611f9b8184611f24565b905095945050505050565b5f81519050611fb48161187c565b92915050565b5f60208284031215611fcf57611fce611849565b5b5f611fdc84828501611fa6565b91505092915050565b7f4e487b71000000000000000000000000000000000000000000000000000000005f52601260045260245ffd5b5f6040820190506120255f830185611a22565b6120326020830184611b2d565b939250505056fea2646970667358221220f3ee6c8ba80f1505a3920dabd016616509df45c5886014e76bed3ef0d31eade264736f6c63430008210033","linkReferences":{}},"methodIdentifiers":{"approve(address,uint256)":"095ea7b3","balanceOf(address)":"70a08231","getApproved(uint256)":"081812fc","isApprovedForAll(address,address)":"e985e9c5","mint(address)":"6a627842","name()":"06fdde03","nextTokenId()":"75794a3c","owner()":"8da5cb5b","ownerOf(uint256)":"6352211e","renounceOwnership()":"715018a6","safeTransferFrom(address,address,uint256)":"42842e0e","safeTransferFrom(address,address,uint256,bytes)":"b88d4fde","setApprovalForAll(address,bool)":"a22cb465","supportsInterface(bytes4)":"01ffc9a7","symbol()":"95d89b41","tokenURI(uint256)":"c87b56dd","transferFrom(address,address,uint256)":"23b872dd","transferOwnership(address)":"f2fde38b"},"id":35}