{"abi":[{"type":"constructor","inputs":[{"name":"_owner","type":"address","internalType":"address"}],"stateMutability":"nonpayable"},{"type":"function","name":"deposit","inputs":[],"outputs":[],"stateMutability":"payable"},{"type":"function","name":"getBalance","inputs":[],"outputs":[{"name":"","type":"uint256","internalType":"uint256"}],"stateMutability":"view"},{"type":"function","name":"owner","inputs":[],"outputs":[{"name":"","type":"address","internalType":"address"}],"stateMutability":"view"},{"type":"function","name":"transfer","inputs":[{"name":"to","type":"address","internalType":"address"},{"name":"amount","type":"uint256","internalType":"uint256"}],"outputs":[],"stateMutability":"nonpayable"},{"type":"function","name":"withdraw","inputs":[{"name":"amount","type":"uint256","internalType":"uint256"}],"outputs":[],"stateMutability":"nonpayable"},{"type":"event","name":"Deposited","inputs":[{"name":"from","type":"address","indexed":true,"internalType":"address"},{"name":"amount","type":"uint256","indexed":false,"internalType":"uint256"}],"anonymous":false},{"type":"event","name":"Transferred","inputs":[{"name":"to","type":"address","indexed":true,"internalType":"address"},{"name":"amount","type":"uint256","indexed":false,"internalType":"uint256"}],"anonymous":false},{"type":"event","name":"Withdrawn","inputs":[{"name":"to","type":"address","indexed":true,"internalType":"address"},{"name":"amount","type":"uint256","indexed":false,"internalType":"uint256"}],"anonymous":false}],"bytecode":{"object":"0x608060405234801561000f575f5ffd5b50604051610899380380610899833981810160405281019061003191906100d4565b805f5f6101000a81548173ffffffffffffffffffffffffffffffffffffffff021916908373ffffffffffffffffffffffffffffffffffffffff160217905550506100ff565b5f5ffd5b5f73ffffffffffffffffffffffffffffffffffffffff82169050919050565b5f6100a38261007a565b9050919050565b6100b381610099565b81146100bd575f5ffd5b50565b5f815190506100ce816100aa565b92915050565b5f602082840312156100e9576100e8610076565b5b5f6100f6848285016100c0565b91505092915050565b61078d8061010c5f395ff3fe608060405260043610610049575f3560e01c806312065fe01461004d5780632e1a7d4d146100775780638da5cb5b1461009f578063a9059cbb146100c9578063d0e30db0146100f1575b5f5ffd5b348015610058575f5ffd5b506100616100fb565b60405161006e91906104dd565b60405180910390f35b348015610082575f5ffd5b5061009d60048036038101906100989190610524565b610102565b005b3480156100aa575f5ffd5b506100b36102a8565b6040516100c0919061058e565b60405180910390f35b3480156100d4575f5ffd5b506100ef60048036038101906100ea91906105d1565b6102cc565b005b6100f9610433565b005b5f47905090565b5f5f9054906101000a900473ffffffffffffffffffffffffffffffffffffffff1673ffffffffffffffffffffffffffffffffffffffff163373ffffffffffffffffffffffffffffffffffffffff1614610190576040517f08c379a000000000000000000000000000000000000000000000000000000000815260040161018790610669565b60405180910390fd5b804710156101d3576040517f08c379a00000000000000000000000000000000000000000000000000000000081526004016101ca906106d1565b60405180910390fd5b5f5f9054906101000a900473ffffffffffffffffffffffffffffffffffffffff1673ffffffffffffffffffffffffffffffffffffffff166108fc8290811502906040515f60405180830381858888f19350505050158015610236573d5f5f3e3d5ffd5b505f5f9054906101000a900473ffffffffffffffffffffffffffffffffffffffff1673ffffffffffffffffffffffffffffffffffffffff167f7084f5476618d8e60b11ef0d7d3f06914655adb8793e28ff7f018d4c76d505d58260405161029d91906104dd565b60405180910390a250565b5f5f9054906101000a900473ffffffffffffffffffffffffffffffffffffffff1681565b5f5f9054906101000a900473ffffffffffffffffffffffffffffffffffffffff1673ffffffffffffffffffffffffffffffffffffffff163373ffffffffffffffffffffffffffffffffffffffff161461035a576040517f08c379a000000000000000000000000000000000000000000000000000000000815260040161035190610669565b60405180910390fd5b8047101561039d576040517f08c379a0000000000000000000000000000000000000000000000000000000008152600401610394906106d1565b60405180910390fd5b8173ffffffffffffffffffffffffffffffffffffffff166108fc8290811502906040515f60405180830381858888f193505050501580156103e0573d5f5f3e3d5ffd5b508173ffffffffffffffffffffffffffffffffffffffff167fe6d858f14d755446648a6e0c8ab8b5a0f58ccc7920d4c910b0454e4dcd869af08260405161042791906104dd565b60405180910390a25050565b5f3411610475576040517f08c379a000000000000000000000000000000000000000000000000000000000815260040161046c90610739565b60405180910390fd5b3373ffffffffffffffffffffffffffffffffffffffff167f2da466a7b24304f47e87fa2e1e5a81b9831ce54fec19055ce277ca2f39ba42c4346040516104bb91906104dd565b60405180910390a2565b5f819050919050565b6104d7816104c5565b82525050565b5f6020820190506104f05f8301846104ce565b92915050565b5f5ffd5b610503816104c5565b811461050d575f5ffd5b50565b5f8135905061051e816104fa565b92915050565b5f60208284031215610539576105386104f6565b5b5f61054684828501610510565b91505092915050565b5f73ffffffffffffffffffffffffffffffffffffffff82169050919050565b5f6105788261054f565b9050919050565b6105888161056e565b82525050565b5f6020820190506105a15f83018461057f565b92915050565b6105b08161056e565b81146105ba575f5ffd5b50565b5f813590506105cb816105a7565b92915050565b5f5f604083850312156105e7576105e66104f6565b5b5f6105f4858286016105bd565b925050602061060585828601610510565b9150509250929050565b5f82825260208201905092915050565b7f4e6f7420617574686f72697a65640000000000000000000000000000000000005f82015250565b5f610653600e8361060f565b915061065e8261061f565b602082019050919050565b5f6020820190508181035f83015261068081610647565b9050919050565b7f496e73756666696369656e742062616c616e63650000000000000000000000005f82015250565b5f6106bb60148361060f565b91506106c682610687565b602082019050919050565b5f6020820190508181035f8301526106e8816106af565b9050919050565b7f4d7573742073656e6420455448000000000000000000000000000000000000005f82015250565b5f610723600d8361060f565b915061072e826106ef565b602082019050919050565b5f6020820190508181035f83015261075081610717565b905091905056fea2646970667358221220c9ace01f4768e3de2c2f6b475d1f3f7c7034c25490b2c69a3da2773602abe42a64736f6c63430008210033","linkReferences":{}},"methodIdentifiers":{"deposit()":"d0e30db0","getBalance()":"12065fe0","owner()":"8da5cb5b","transfer(address,uint256)":"a9059cbb","withdraw(uint256)":"2e1a7d4d"},"id":19}